{
  "address": "0xfD28f108e95f4D41daAE9dbfFf707D677985998E",
  "abi": [
    {
      "inputs": [
        {
          "internalType": "address",
          "name": "owner",
          "type": "address"
        }
      ],
      "stateMutability": "nonpayable",
      "type": "constructor"
    },
    {
      "inputs": [
        {
          "internalType": "bytes32",
          "name": "operationId",
          "type": "bytes32"
        }
      ],
      "name": "AccessManagerAlreadyScheduled",
      "type": "error"
    },
    {
      "inputs": [],
      "name": "AccessManagerBadConfirmation",
      "type": "error"
    },
    {
      "inputs": [
        {
          "internalType": "bytes32",
          "name": "operationId",
          "type": "bytes32"
        }
      ],
      "name": "AccessManagerExpired",
      "type": "error"
    },
    {
      "inputs": [
        {
          "internalType": "address",
          "name": "initialAdmin",
          "type": "address"
        }
      ],
      "name": "AccessManagerInvalidInitialAdmin",
      "type": "error"
    },
    {
      "inputs": [
        {
          "internalType": "address",
          "name": "account",
          "type": "address"
        }
      ],
      "name": "AccessManagerLockedAccount",
      "type": "error"
    },
    {
      "inputs": [
        {
          "internalType": "uint64",
          "name": "roleId",
          "type": "uint64"
        }
      ],
      "name": "AccessManagerLockedRole",
      "type": "error"
    },
    {
      "inputs": [
        {
          "internalType": "bytes32",
          "name": "operationId",
          "type": "bytes32"
        }
      ],
      "name": "AccessManagerNotReady",
      "type": "error"
    },
    {
      "inputs": [
        {
          "internalType": "bytes32",
          "name": "operationId",
          "type": "bytes32"
        }
      ],
      "name": "AccessManagerNotScheduled",
      "type": "error"
    },
    {
      "inputs": [
        {
          "internalType": "address",
          "name": "msgsender",
          "type": "address"
        },
        {
          "internalType": "uint64",
          "name": "roleId",
          "type": "uint64"
        }
      ],
      "name": "AccessManagerUnauthorizedAccount",
      "type": "error"
    },
    {
      "inputs": [
        {
          "internalType": "address",
          "name": "caller",
          "type": "address"
        },
        {
          "internalType": "address",
          "name": "target",
          "type": "address"
        },
        {
          "internalType": "bytes4",
          "name": "selector",
          "type": "bytes4"
        }
      ],
      "name": "AccessManagerUnauthorizedCall",
      "type": "error"
    },
    {
      "inputs": [
        {
          "internalType": "address",
          "name": "msgsender",
          "type": "address"
        },
        {
          "internalType": "address",
          "name": "caller",
          "type": "address"
        },
        {
          "internalType": "address",
          "name": "target",
          "type": "address"
        },
        {
          "internalType": "bytes4",
          "name": "selector",
          "type": "bytes4"
        }
      ],
      "name": "AccessManagerUnauthorizedCancel",
      "type": "error"
    },
    {
      "inputs": [
        {
          "internalType": "address",
          "name": "target",
          "type": "address"
        }
      ],
      "name": "AccessManagerUnauthorizedConsume",
      "type": "error"
    },
    {
      "inputs": [
        {
          "internalType": "address",
          "name": "target",
          "type": "address"
        }
      ],
      "name": "AddressEmptyCode",
      "type": "error"
    },
    {
      "inputs": [
        {
          "internalType": "address",
          "name": "account",
          "type": "address"
        }
      ],
      "name": "AddressInsufficientBalance",
      "type": "error"
    },
    {
      "inputs": [],
      "name": "FailedInnerCall",
      "type": "error"
    },
    {
      "inputs": [
        {
          "internalType": "uint8",
          "name": "bits",
          "type": "uint8"
        },
        {
          "internalType": "uint256",
          "name": "value",
          "type": "uint256"
        }
      ],
      "name": "SafeCastOverflowedUintDowncast",
      "type": "error"
    },
    {
      "anonymous": false,
      "inputs": [
        {
          "indexed": true,
          "internalType": "bytes32",
          "name": "operationId",
          "type": "bytes32"
        },
        {
          "indexed": true,
          "internalType": "uint32",
          "name": "nonce",
          "type": "uint32"
        }
      ],
      "name": "OperationCanceled",
      "type": "event"
    },
    {
      "anonymous": false,
      "inputs": [
        {
          "indexed": true,
          "internalType": "bytes32",
          "name": "operationId",
          "type": "bytes32"
        },
        {
          "indexed": true,
          "internalType": "uint32",
          "name": "nonce",
          "type": "uint32"
        }
      ],
      "name": "OperationExecuted",
      "type": "event"
    },
    {
      "anonymous": false,
      "inputs": [
        {
          "indexed": true,
          "internalType": "bytes32",
          "name": "operationId",
          "type": "bytes32"
        },
        {
          "indexed": true,
          "internalType": "uint32",
          "name": "nonce",
          "type": "uint32"
        },
        {
          "indexed": false,
          "internalType": "uint48",
          "name": "schedule",
          "type": "uint48"
        },
        {
          "indexed": false,
          "internalType": "address",
          "name": "caller",
          "type": "address"
        },
        {
          "indexed": false,
          "internalType": "address",
          "name": "target",
          "type": "address"
        },
        {
          "indexed": false,
          "internalType": "bytes",
          "name": "data",
          "type": "bytes"
        }
      ],
      "name": "OperationScheduled",
      "type": "event"
    },
    {
      "anonymous": false,
      "inputs": [
        {
          "indexed": true,
          "internalType": "uint64",
          "name": "roleId",
          "type": "uint64"
        },
        {
          "indexed": true,
          "internalType": "uint64",
          "name": "admin",
          "type": "uint64"
        }
      ],
      "name": "RoleAdminChanged",
      "type": "event"
    },
    {
      "anonymous": false,
      "inputs": [
        {
          "indexed": true,
          "internalType": "uint64",
          "name": "roleId",
          "type": "uint64"
        },
        {
          "indexed": false,
          "internalType": "uint32",
          "name": "delay",
          "type": "uint32"
        },
        {
          "indexed": false,
          "internalType": "uint48",
          "name": "since",
          "type": "uint48"
        }
      ],
      "name": "RoleGrantDelayChanged",
      "type": "event"
    },
    {
      "anonymous": false,
      "inputs": [
        {
          "indexed": true,
          "internalType": "uint64",
          "name": "roleId",
          "type": "uint64"
        },
        {
          "indexed": true,
          "internalType": "address",
          "name": "account",
          "type": "address"
        },
        {
          "indexed": false,
          "internalType": "uint32",
          "name": "delay",
          "type": "uint32"
        },
        {
          "indexed": false,
          "internalType": "uint48",
          "name": "since",
          "type": "uint48"
        },
        {
          "indexed": false,
          "internalType": "bool",
          "name": "newMember",
          "type": "bool"
        }
      ],
      "name": "RoleGranted",
      "type": "event"
    },
    {
      "anonymous": false,
      "inputs": [
        {
          "indexed": true,
          "internalType": "uint64",
          "name": "roleId",
          "type": "uint64"
        },
        {
          "indexed": true,
          "internalType": "uint64",
          "name": "guardian",
          "type": "uint64"
        }
      ],
      "name": "RoleGuardianChanged",
      "type": "event"
    },
    {
      "anonymous": false,
      "inputs": [
        {
          "indexed": true,
          "internalType": "uint64",
          "name": "roleId",
          "type": "uint64"
        },
        {
          "indexed": false,
          "internalType": "string",
          "name": "label",
          "type": "string"
        }
      ],
      "name": "RoleLabel",
      "type": "event"
    },
    {
      "anonymous": false,
      "inputs": [
        {
          "indexed": true,
          "internalType": "uint64",
          "name": "roleId",
          "type": "uint64"
        },
        {
          "indexed": true,
          "internalType": "address",
          "name": "account",
          "type": "address"
        }
      ],
      "name": "RoleRevoked",
      "type": "event"
    },
    {
      "anonymous": false,
      "inputs": [
        {
          "indexed": true,
          "internalType": "address",
          "name": "target",
          "type": "address"
        },
        {
          "indexed": false,
          "internalType": "uint32",
          "name": "delay",
          "type": "uint32"
        },
        {
          "indexed": false,
          "internalType": "uint48",
          "name": "since",
          "type": "uint48"
        }
      ],
      "name": "TargetAdminDelayUpdated",
      "type": "event"
    },
    {
      "anonymous": false,
      "inputs": [
        {
          "indexed": true,
          "internalType": "address",
          "name": "target",
          "type": "address"
        },
        {
          "indexed": false,
          "internalType": "bool",
          "name": "closed",
          "type": "bool"
        }
      ],
      "name": "TargetClosed",
      "type": "event"
    },
    {
      "anonymous": false,
      "inputs": [
        {
          "indexed": true,
          "internalType": "address",
          "name": "target",
          "type": "address"
        },
        {
          "indexed": false,
          "internalType": "bytes4",
          "name": "selector",
          "type": "bytes4"
        },
        {
          "indexed": true,
          "internalType": "uint64",
          "name": "roleId",
          "type": "uint64"
        }
      ],
      "name": "TargetFunctionRoleUpdated",
      "type": "event"
    },
    {
      "inputs": [],
      "name": "ADMIN_ROLE",
      "outputs": [
        {
          "internalType": "uint64",
          "name": "",
          "type": "uint64"
        }
      ],
      "stateMutability": "view",
      "type": "function"
    },
    {
      "inputs": [],
      "name": "PUBLIC_ROLE",
      "outputs": [
        {
          "internalType": "uint64",
          "name": "",
          "type": "uint64"
        }
      ],
      "stateMutability": "view",
      "type": "function"
    },
    {
      "inputs": [
        {
          "internalType": "address",
          "name": "caller",
          "type": "address"
        },
        {
          "internalType": "address",
          "name": "target",
          "type": "address"
        },
        {
          "internalType": "bytes4",
          "name": "selector",
          "type": "bytes4"
        }
      ],
      "name": "canCall",
      "outputs": [
        {
          "internalType": "bool",
          "name": "immediate",
          "type": "bool"
        },
        {
          "internalType": "uint32",
          "name": "delay",
          "type": "uint32"
        }
      ],
      "stateMutability": "view",
      "type": "function"
    },
    {
      "inputs": [
        {
          "internalType": "address",
          "name": "caller",
          "type": "address"
        },
        {
          "internalType": "address",
          "name": "target",
          "type": "address"
        },
        {
          "internalType": "bytes",
          "name": "data",
          "type": "bytes"
        }
      ],
      "name": "cancel",
      "outputs": [
        {
          "internalType": "uint32",
          "name": "",
          "type": "uint32"
        }
      ],
      "stateMutability": "nonpayable",
      "type": "function"
    },
    {
      "inputs": [
        {
          "internalType": "address",
          "name": "caller",
          "type": "address"
        },
        {
          "internalType": "bytes",
          "name": "data",
          "type": "bytes"
        }
      ],
      "name": "consumeScheduledOp",
      "outputs": [],
      "stateMutability": "nonpayable",
      "type": "function"
    },
    {
      "inputs": [
        {
          "internalType": "address",
          "name": "target",
          "type": "address"
        },
        {
          "internalType": "bytes",
          "name": "data",
          "type": "bytes"
        }
      ],
      "name": "execute",
      "outputs": [
        {
          "internalType": "uint32",
          "name": "",
          "type": "uint32"
        }
      ],
      "stateMutability": "payable",
      "type": "function"
    },
    {
      "inputs": [],
      "name": "expiration",
      "outputs": [
        {
          "internalType": "uint32",
          "name": "",
          "type": "uint32"
        }
      ],
      "stateMutability": "view",
      "type": "function"
    },
    {
      "inputs": [
        {
          "internalType": "uint64",
          "name": "roleId",
          "type": "uint64"
        },
        {
          "internalType": "address",
          "name": "account",
          "type": "address"
        }
      ],
      "name": "getAccess",
      "outputs": [
        {
          "internalType": "uint48",
          "name": "since",
          "type": "uint48"
        },
        {
          "internalType": "uint32",
          "name": "currentDelay",
          "type": "uint32"
        },
        {
          "internalType": "uint32",
          "name": "pendingDelay",
          "type": "uint32"
        },
        {
          "internalType": "uint48",
          "name": "effect",
          "type": "uint48"
        }
      ],
      "stateMutability": "view",
      "type": "function"
    },
    {
      "inputs": [
        {
          "internalType": "bytes32",
          "name": "id",
          "type": "bytes32"
        }
      ],
      "name": "getNonce",
      "outputs": [
        {
          "internalType": "uint32",
          "name": "",
          "type": "uint32"
        }
      ],
      "stateMutability": "view",
      "type": "function"
    },
    {
      "inputs": [
        {
          "internalType": "uint64",
          "name": "roleId",
          "type": "uint64"
        }
      ],
      "name": "getRoleAdmin",
      "outputs": [
        {
          "internalType": "uint64",
          "name": "",
          "type": "uint64"
        }
      ],
      "stateMutability": "view",
      "type": "function"
    },
    {
      "inputs": [
        {
          "internalType": "uint64",
          "name": "roleId",
          "type": "uint64"
        }
      ],
      "name": "getRoleGrantDelay",
      "outputs": [
        {
          "internalType": "uint32",
          "name": "",
          "type": "uint32"
        }
      ],
      "stateMutability": "view",
      "type": "function"
    },
    {
      "inputs": [
        {
          "internalType": "uint64",
          "name": "roleId",
          "type": "uint64"
        }
      ],
      "name": "getRoleGuardian",
      "outputs": [
        {
          "internalType": "uint64",
          "name": "",
          "type": "uint64"
        }
      ],
      "stateMutability": "view",
      "type": "function"
    },
    {
      "inputs": [
        {
          "internalType": "bytes32",
          "name": "id",
          "type": "bytes32"
        }
      ],
      "name": "getSchedule",
      "outputs": [
        {
          "internalType": "uint48",
          "name": "",
          "type": "uint48"
        }
      ],
      "stateMutability": "view",
      "type": "function"
    },
    {
      "inputs": [
        {
          "internalType": "address",
          "name": "target",
          "type": "address"
        }
      ],
      "name": "getTargetAdminDelay",
      "outputs": [
        {
          "internalType": "uint32",
          "name": "",
          "type": "uint32"
        }
      ],
      "stateMutability": "view",
      "type": "function"
    },
    {
      "inputs": [
        {
          "internalType": "address",
          "name": "target",
          "type": "address"
        },
        {
          "internalType": "bytes4",
          "name": "selector",
          "type": "bytes4"
        }
      ],
      "name": "getTargetFunctionRole",
      "outputs": [
        {
          "internalType": "uint64",
          "name": "",
          "type": "uint64"
        }
      ],
      "stateMutability": "view",
      "type": "function"
    },
    {
      "inputs": [
        {
          "internalType": "uint64",
          "name": "roleId",
          "type": "uint64"
        },
        {
          "internalType": "address",
          "name": "account",
          "type": "address"
        },
        {
          "internalType": "uint32",
          "name": "executionDelay",
          "type": "uint32"
        }
      ],
      "name": "grantRole",
      "outputs": [],
      "stateMutability": "nonpayable",
      "type": "function"
    },
    {
      "inputs": [
        {
          "internalType": "uint64",
          "name": "roleId",
          "type": "uint64"
        },
        {
          "internalType": "address",
          "name": "account",
          "type": "address"
        }
      ],
      "name": "hasRole",
      "outputs": [
        {
          "internalType": "bool",
          "name": "isMember",
          "type": "bool"
        },
        {
          "internalType": "uint32",
          "name": "executionDelay",
          "type": "uint32"
        }
      ],
      "stateMutability": "view",
      "type": "function"
    },
    {
      "inputs": [
        {
          "internalType": "address",
          "name": "caller",
          "type": "address"
        },
        {
          "internalType": "address",
          "name": "target",
          "type": "address"
        },
        {
          "internalType": "bytes",
          "name": "data",
          "type": "bytes"
        }
      ],
      "name": "hashOperation",
      "outputs": [
        {
          "internalType": "bytes32",
          "name": "",
          "type": "bytes32"
        }
      ],
      "stateMutability": "view",
      "type": "function"
    },
    {
      "inputs": [
        {
          "internalType": "address",
          "name": "target",
          "type": "address"
        }
      ],
      "name": "isTargetClosed",
      "outputs": [
        {
          "internalType": "bool",
          "name": "",
          "type": "bool"
        }
      ],
      "stateMutability": "view",
      "type": "function"
    },
    {
      "inputs": [
        {
          "internalType": "uint64",
          "name": "roleId",
          "type": "uint64"
        },
        {
          "internalType": "string",
          "name": "label",
          "type": "string"
        }
      ],
      "name": "labelRole",
      "outputs": [],
      "stateMutability": "nonpayable",
      "type": "function"
    },
    {
      "inputs": [],
      "name": "minSetback",
      "outputs": [
        {
          "internalType": "uint32",
          "name": "",
          "type": "uint32"
        }
      ],
      "stateMutability": "view",
      "type": "function"
    },
    {
      "inputs": [
        {
          "internalType": "bytes[]",
          "name": "data",
          "type": "bytes[]"
        }
      ],
      "name": "multicall",
      "outputs": [
        {
          "internalType": "bytes[]",
          "name": "results",
          "type": "bytes[]"
        }
      ],
      "stateMutability": "nonpayable",
      "type": "function"
    },
    {
      "inputs": [
        {
          "internalType": "uint64",
          "name": "roleId",
          "type": "uint64"
        },
        {
          "internalType": "address",
          "name": "callerConfirmation",
          "type": "address"
        }
      ],
      "name": "renounceRole",
      "outputs": [],
      "stateMutability": "nonpayable",
      "type": "function"
    },
    {
      "inputs": [
        {
          "internalType": "uint64",
          "name": "roleId",
          "type": "uint64"
        },
        {
          "internalType": "address",
          "name": "account",
          "type": "address"
        }
      ],
      "name": "revokeRole",
      "outputs": [],
      "stateMutability": "nonpayable",
      "type": "function"
    },
    {
      "inputs": [
        {
          "internalType": "address",
          "name": "target",
          "type": "address"
        },
        {
          "internalType": "bytes",
          "name": "data",
          "type": "bytes"
        },
        {
          "internalType": "uint48",
          "name": "when",
          "type": "uint48"
        }
      ],
      "name": "schedule",
      "outputs": [
        {
          "internalType": "bytes32",
          "name": "operationId",
          "type": "bytes32"
        },
        {
          "internalType": "uint32",
          "name": "nonce",
          "type": "uint32"
        }
      ],
      "stateMutability": "nonpayable",
      "type": "function"
    },
    {
      "inputs": [
        {
          "internalType": "uint64",
          "name": "roleId",
          "type": "uint64"
        },
        {
          "internalType": "uint32",
          "name": "newDelay",
          "type": "uint32"
        }
      ],
      "name": "setGrantDelay",
      "outputs": [],
      "stateMutability": "nonpayable",
      "type": "function"
    },
    {
      "inputs": [
        {
          "internalType": "uint64",
          "name": "roleId",
          "type": "uint64"
        },
        {
          "internalType": "uint64",
          "name": "admin",
          "type": "uint64"
        }
      ],
      "name": "setRoleAdmin",
      "outputs": [],
      "stateMutability": "nonpayable",
      "type": "function"
    },
    {
      "inputs": [
        {
          "internalType": "uint64",
          "name": "roleId",
          "type": "uint64"
        },
        {
          "internalType": "uint64",
          "name": "guardian",
          "type": "uint64"
        }
      ],
      "name": "setRoleGuardian",
      "outputs": [],
      "stateMutability": "nonpayable",
      "type": "function"
    },
    {
      "inputs": [
        {
          "internalType": "address",
          "name": "target",
          "type": "address"
        },
        {
          "internalType": "uint32",
          "name": "newDelay",
          "type": "uint32"
        }
      ],
      "name": "setTargetAdminDelay",
      "outputs": [],
      "stateMutability": "nonpayable",
      "type": "function"
    },
    {
      "inputs": [
        {
          "internalType": "address",
          "name": "target",
          "type": "address"
        },
        {
          "internalType": "bool",
          "name": "closed",
          "type": "bool"
        }
      ],
      "name": "setTargetClosed",
      "outputs": [],
      "stateMutability": "nonpayable",
      "type": "function"
    },
    {
      "inputs": [
        {
          "internalType": "address",
          "name": "target",
          "type": "address"
        },
        {
          "internalType": "bytes4[]",
          "name": "selectors",
          "type": "bytes4[]"
        },
        {
          "internalType": "uint64",
          "name": "roleId",
          "type": "uint64"
        }
      ],
      "name": "setTargetFunctionRole",
      "outputs": [],
      "stateMutability": "nonpayable",
      "type": "function"
    },
    {
      "inputs": [
        {
          "internalType": "address",
          "name": "target",
          "type": "address"
        },
        {
          "internalType": "address",
          "name": "newAuthority",
          "type": "address"
        }
      ],
      "name": "updateAuthority",
      "outputs": [],
      "stateMutability": "nonpayable",
      "type": "function"
    }
  ],
  "transactionHash": "0xe5d76bbb54600805f81bb732244e9ae1a92bea942468a014f9cc146c557cc21e",
  "args": [
    "0x66CcEC236bbcE5f1bBd1b2fC0a4014e57A55ad02"
  ],
  "numDeployments": 1,
  "solcInputHash": "5615438861659129a58edf3aeed6f893",
  "bytecode": "0x608060405234801561001057600080fd5b5060405161399a38038061399a83398101604081905261002f91610464565b806001600160a01b03811661005f57604051630409d6d160e11b8152600060048201526024015b60405180910390fd5b61006c6000828180610074565b5050506104e4565b60006002600160401b03196001600160401b038616016100b25760405163061c6a4360e21b81526001600160401b0386166004820152602401610056565b6001600160401b03851660009081526001602090815260408083206001600160a01b038816845290915281205465ffffffffffff16159081156101a95763ffffffff85166100fe6102bf565b61010891906104aa565b905060405180604001604052808265ffffffffffff1681526020016101388663ffffffff166102cf60201b60201c565b6001600160701b039081169091526001600160401b03891660009081526001602090815260408083206001600160a01b038c16845282529091208351815494909201519092166601000000000000026001600160a01b031990931665ffffffffffff90911617919091179055610251565b6001600160401b03871660009081526001602090815260408083206001600160a01b038a1684529091528120546101f69166010000000000009091046001600160701b03169086906102d8565b6001600160401b03891660009081526001602090815260408083206001600160a01b038c168452909152902080546001600160701b03909316660100000000000002600160301b600160a01b03199093169290921790915590505b6040805163ffffffff8616815265ffffffffffff831660208201528315158183015290516001600160a01b038816916001600160401b038a16917ff98448b987f1428e0e230e1f3c6e2ce15b5693eaf31827fbd0b1ec4b424ae7cf9181900360600190a35095945050505050565b60006102ca42610381565b905090565b63ffffffff1690565b600080806102ee6001600160701b0387166103b8565b9050600061032b8563ffffffff168763ffffffff168463ffffffff1611610316576000610320565b61032088856104c8565b63ffffffff166103d7565b905063ffffffff811661033c6102bf565b61034691906104aa565b925063ffffffff8616602083901b67ffffffff0000000016604085901b6dffffffffffff000000000000000016171793505050935093915050565b600065ffffffffffff8211156103b4576040516306dfcc6560e41b81526030600482015260248101839052604401610056565b5090565b6000806103cd6001600160701b0384166103f1565b5090949350505050565b60008183116103e657816103e8565b825b90505b92915050565b60008080610406846104016102bf565b610413565b9250925092509193909250565b600080806001600160501b03602086901c166001600160701b03861665ffffffffffff604088901c811690871681111561044f57828282610454565b816000805b9550955095505050509250925092565b60006020828403121561047657600080fd5b81516001600160a01b038116811461048d57600080fd5b9392505050565b634e487b7160e01b600052601160045260246000fd5b65ffffffffffff81811683821601908111156103eb576103eb610494565b63ffffffff82811682821603908111156103eb576103eb610494565b6134a7806104f36000396000f3fe6080604052600436106101e35760003560e01c80636d5115bd11610102578063b700961311610095578063d22b598911610064578063d22b598914610701578063d6bb62c614610721578063f801a69814610741578063fe0776f51461077b57600080fd5b8063b70096131461066f578063b7d2b162146106ab578063cc1b6c81146106cb578063d1f856ee146106e157600080fd5b8063a166aa89116100d1578063a166aa8914610589578063a64d95ce146105f4578063abd9bd2a14610614578063ac9650d81461064257600080fd5b80636d5115bd146104b857806375b238fc14610534578063853551b81461054957806394c7d7ee1461056957600080fd5b806330cae1871161017a5780634665096d116101495780634665096d146104245780634c1da1e21461043a578063529629521461045a578063530dd4561461047a57600080fd5b806330cae187146103745780633adc277a146103945780633ca7c02a146103cb5780634136a33c146103e757600080fd5b806318ff183c116101b657806318ff183c146102c75780631cff79cd146102e757806325c471a0146102fa5780633078f1141461031a57600080fd5b806308d6122d146101e85780630b0a93ba1461020a57806312be872714610272578063167bd395146102a7575b600080fd5b3480156101f457600080fd5b50610208610203366004612bb8565b61079b565b005b34801561021657600080fd5b50610254610225366004612c1f565b67ffffffffffffffff908116600090815260016020819052604090912001546801000000000000000090041690565b60405167ffffffffffffffff90911681526020015b60405180910390f35b34801561027e57600080fd5b5061029261028d366004612c1f565b6107ee565b60405163ffffffff9091168152602001610269565b3480156102b357600080fd5b506102086102c2366004612c3a565b61083e565b3480156102d357600080fd5b506102086102e2366004612c78565b610854565b6102926102f5366004612ce8565b6108e1565b34801561030657600080fd5b50610208610315366004612d51565b610ab1565b34801561032657600080fd5b5061033a610335366004612d96565b610ad3565b604051610269949392919065ffffffffffff948516815263ffffffff93841660208201529190921660408201529116606082015260800190565b34801561038057600080fd5b5061020861038f366004612db2565b610b50565b3480156103a057600080fd5b506103b46103af366004612de5565b610b62565b60405165ffffffffffff9091168152602001610269565b3480156103d757600080fd5b5061025467ffffffffffffffff81565b3480156103f357600080fd5b50610292610402366004612de5565b6000908152600260205260409020546601000000000000900463ffffffff1690565b34801561043057600080fd5b5062093a80610292565b34801561044657600080fd5b50610292610455366004612dfe565b610b95565b34801561046657600080fd5b50610208610475366004612db2565b610bd7565b34801561048657600080fd5b50610254610495366004612c1f565b67ffffffffffffffff908116600090815260016020819052604090912001541690565b3480156104c457600080fd5b506102546104d3366004612e49565b73ffffffffffffffffffffffffffffffffffffffff82166000908152602081815260408083207fffffffff000000000000000000000000000000000000000000000000000000008516845290915290205467ffffffffffffffff1692915050565b34801561054057600080fd5b50610254600081565b34801561055557600080fd5b50610208610564366004612e77565b610be9565b34801561057557600080fd5b50610208610584366004612ce8565b610c9d565b34801561059557600080fd5b506105e46105a4366004612dfe565b73ffffffffffffffffffffffffffffffffffffffff166000908152602081905260409020600101546e010000000000000000000000000000900460ff1690565b6040519015158152602001610269565b34801561060057600080fd5b5061020861060f366004612e95565b610da0565b34801561062057600080fd5b5061063461062f366004612ebf565b610db2565b604051908152602001610269565b34801561064e57600080fd5b5061066261065d366004612f24565b610deb565b6040516102699190612f8a565b34801561067b57600080fd5b5061068f61068a366004613046565b610ed3565b60408051921515835263ffffffff909116602083015201610269565b3480156106b757600080fd5b506102086106c6366004612d96565b611043565b3480156106d757600080fd5b5062069780610292565b3480156106ed57600080fd5b5061068f6106fc366004612d96565b61105a565b34801561070d57600080fd5b5061020861071c366004613091565b6110ef565b34801561072d57600080fd5b5061029261073c366004612ebf565b611101565b34801561074d57600080fd5b5061076161075c3660046130af565b611340565b6040805192835263ffffffff909116602083015201610269565b34801561078757600080fd5b50610208610796366004612d96565b61149d565b6107a36114ec565b60005b828110156107e7576107df858585848181106107c4576107c4613122565b90506020020160208101906107d99190613151565b8461158e565b6001016107a6565b5050505050565b67ffffffffffffffff81166000908152600160208190526040822001546108389070010000000000000000000000000000000090046dffffffffffffffffffffffffffff1661164d565b92915050565b6108466114ec565b6108508282611673565b5050565b61085c6114ec565b6040517f7a9e5e4b00000000000000000000000000000000000000000000000000000000815273ffffffffffffffffffffffffffffffffffffffff8281166004830152831690637a9e5e4b90602401600060405180830381600087803b1580156108c557600080fd5b505af11580156108d9573d6000803e3d6000fd5b505050505050565b60003381806108f28388888861177f565b9150915081158015610908575063ffffffff8116155b1561099957828761091988886117df565b6040517f81c6f24b00000000000000000000000000000000000000000000000000000000815273ffffffffffffffffffffffffffffffffffffffff93841660048201529290911660248301527fffffffff000000000000000000000000000000000000000000000000000000001660448201526064015b60405180910390fd5b60006109a784898989610db2565b9050600063ffffffff83161515806109ce57506109c382610b62565b65ffffffffffff1615155b156109df576109dc826117f7565b90505b600354610a578a6109f08b8b6117df565b6040805173ffffffffffffffffffffffffffffffffffffffff939093166020808501919091527fffffffff00000000000000000000000000000000000000000000000000000000929092168382015280518084038201815260609093019052815191012090565b600381905550610a9f8a8a8a8080601f01602080910402602001604051908101604052809392919081815260200183838082843760009201919091525034925061195e915050565b506003559450505050505b9392505050565b610ab96114ec565b610acd8383610ac7866107ee565b84611a21565b50505050565b67ffffffffffffffff8216600090815260016020908152604080832073ffffffffffffffffffffffffffffffffffffffff851684529091528120805465ffffffffffff811692918291829190610b4290660100000000000090046dffffffffffffffffffffffffffff16611d25565b969991985096509350505050565b610b586114ec565b6108508282611d48565b60008181526002602052604081205465ffffffffffff16610b8281611e20565b610b8c5780610aaa565b60009392505050565b73ffffffffffffffffffffffffffffffffffffffff8116600090815260208190526040812060010154610838906dffffffffffffffffffffffffffff1661164d565b610bdf6114ec565b6108508282611e4f565b610bf16114ec565b67ffffffffffffffff83161580610c11575067ffffffffffffffff838116145b15610c54576040517f1871a90c00000000000000000000000000000000000000000000000000000000815267ffffffffffffffff84166004820152602401610990565b8267ffffffffffffffff167f1256f5b5ecb89caec12db449738f2fbcd1ba5806cf38f35413f4e5c15bf6a4508383604051610c909291906131b7565b60405180910390a2505050565b604080517f8fb360370000000000000000000000000000000000000000000000000000000080825291513392918391638fb36037916004808201926020929091908290030181865afa158015610cf7573d6000803e3d6000fd5b505050506040513d601f19601f82011682018060405250810190610d1b91906131d3565b7fffffffff000000000000000000000000000000000000000000000000000000001614610d8c576040517f320ff74800000000000000000000000000000000000000000000000000000000815273ffffffffffffffffffffffffffffffffffffffff82166004820152602401610990565b6107e7610d9b85838686610db2565b6117f7565b610da86114ec565b6108508282611f32565b600084848484604051602001610dcb94939291906131f0565b604051602081830303815290604052805190602001209050949350505050565b6040805160008152602081019091526060908267ffffffffffffffff811115610e1657610e16613295565b604051908082528060200260200182016040528015610e4957816020015b6060815260200190600190039081610e345790505b50915060005b83811015610ecb57610ea630868684818110610e6d57610e6d613122565b9050602002810190610e7f91906132c4565b85604051602001610e9293929190613329565b6040516020818303038152906040526120ad565b838281518110610eb857610eb8613122565b6020908102919091010152600101610e4f565b505092915050565b73ffffffffffffffffffffffffffffffffffffffff821660009081526020819052604081206001015481906e010000000000000000000000000000900460ff1615610f235750600090508061103b565b3073ffffffffffffffffffffffffffffffffffffffff861603610fb1576040805173ffffffffffffffffffffffffffffffffffffffff86166020808301919091527fffffffff0000000000000000000000000000000000000000000000000000000086168284015282518083038401815260609092019092528051910120600354145b60009150915061103b565b73ffffffffffffffffffffffffffffffffffffffff84166000908152602081815260408083207fffffffff000000000000000000000000000000000000000000000000000000008716845290915281205467ffffffffffffffff169080611018838961105a565b915091508161102957600080611033565b63ffffffff811615815b945094505050505b935093915050565b61104b6114ec565b6110558282612130565b505050565b6000807fffffffffffffffffffffffffffffffffffffffffffffffff000000000000000167ffffffffffffffff85160161109a57506001905060006110e8565b6000806110a78686610ad3565b5050915091508165ffffffffffff166000141580156110dd57506110c9612283565b65ffffffffffff168265ffffffffffff1611155b935091506110e89050565b9250929050565b6110f76114ec565b6108508282612293565b6000338161110f85856117df565b9050600061111f88888888610db2565b60008181526002602052604081205491925065ffffffffffff9091169003611176576040517f60a299b000000000000000000000000000000000000000000000000000000000815260048101829052602401610990565b8273ffffffffffffffffffffffffffffffffffffffff168873ffffffffffffffffffffffffffffffffffffffff16146112c25760006111b660008561105a565b5073ffffffffffffffffffffffffffffffffffffffff89166000908152602081815260408083207fffffffff000000000000000000000000000000000000000000000000000000008816845290915281205491925090611229906112239067ffffffffffffffff16610225565b8661105a565b50905081158015611238575080155b156112bf576040517f3fe2751c00000000000000000000000000000000000000000000000000000000815273ffffffffffffffffffffffffffffffffffffffff8087166004830152808c1660248301528a1660448201527fffffffff0000000000000000000000000000000000000000000000000000000085166064820152608401610990565b50505b60008181526002602052604080822080547fffffffffffffffffffffffffffffffffffffffffffffffffffff00000000000016908190559051660100000000000090910463ffffffff1691829184917fbd9ac67a6e2f6463b80927326310338bcbb4bdb7936ce1365ea3e01067e7b9f791a398975050505050505050565b60008033816113518289898961177f565b91505060008163ffffffff16611365612283565b61136f9190613350565b905063ffffffff821615806113a6575060008665ffffffffffff161180156113a657508065ffffffffffff168665ffffffffffff16105b156113b75782896109198a8a6117df565b6113d18665ffffffffffff168265ffffffffffff16612389565b95506113df838a8a8a610db2565b94506113ea8561239f565b60008581526002602052604090819020805465ffffffffffff89167fffffffffffffffffffffffffffffffffffffffffffff0000000000000000000082161766010000000000009182900463ffffffff90811660010190811692830291909117909255915190955086907f82a2da5dee54ea8021c6545b4444620291e07ee83be6dd57edb175062715f3b490611489908a9088908f908f908f9061336e565b60405180910390a350505094509492505050565b73ffffffffffffffffffffffffffffffffffffffff8116331461104b576040517f5f159e6300000000000000000000000000000000000000000000000000000000815260040160405180910390fd5b336000806114fb838236612405565b9150915081611055578063ffffffff1660000361157e57600061151e8136612530565b506040517ff07e038f00000000000000000000000000000000000000000000000000000000815273ffffffffffffffffffffffffffffffffffffffff8716600482015267ffffffffffffffff821660248201529092506044019050610990565b610acd610d9b8430600036610db2565b73ffffffffffffffffffffffffffffffffffffffff83166000818152602081815260408083207fffffffff0000000000000000000000000000000000000000000000000000000087168085529083529281902080547fffffffffffffffffffffffffffffffffffffffffffffffff00000000000000001667ffffffffffffffff8716908117909155905192835292917f9ea6790c7dadfd01c9f8b9762b3682607af2c7e79e05a9f9fdf5580dde949151910160405180910390a3505050565b600080611669836dffffffffffffffffffffffffffff16611d25565b5090949350505050565b3073ffffffffffffffffffffffffffffffffffffffff8316036116da576040517f5a068bc800000000000000000000000000000000000000000000000000000000815273ffffffffffffffffffffffffffffffffffffffff83166004820152602401610990565b73ffffffffffffffffffffffffffffffffffffffff82166000818152602081905260409081902060010180548415156e010000000000000000000000000000027fffffffffffffffffffffffffffffffffff00ffffffffffffffffffffffffffff909116179055517f90d4e7bb7e5d933792b3562e1741306f8be94837e1348dacef9b6f1df56eb1389061177390841515815260200190565b60405180910390a25050565b6000803073ffffffffffffffffffffffffffffffffffffffff8616036117b3576117aa868585612405565b915091506117d6565b600483106117cf576117ca868661068a87876117df565b6117aa565b5060009050805b94509492505050565b60006117ee600482848661326b565b610aaa916133d3565b60008181526002602052604081205465ffffffffffff8116906601000000000000900463ffffffff1681830361185c576040517f60a299b000000000000000000000000000000000000000000000000000000000815260048101859052602401610990565b611864612283565b65ffffffffffff168265ffffffffffff1611156118b0576040517f18cb6b7a00000000000000000000000000000000000000000000000000000000815260048101859052602401610990565b6118b982611e20565b156118f3576040517f78a5d6e400000000000000000000000000000000000000000000000000000000815260048101859052602401610990565b60008481526002602052604080822080547fffffffffffffffffffffffffffffffffffffffffffffffffffff0000000000001690555163ffffffff83169186917f76a2a46953689d4861a5d3f6ed883ad7e6af674a21f8e162707159fc9dde614d9190a39392505050565b60608147101561199c576040517fcd786059000000000000000000000000000000000000000000000000000000008152306004820152602401610990565b6000808573ffffffffffffffffffffffffffffffffffffffff1684866040516119c59190613439565b60006040518083038185875af1925050503d8060008114611a02576040519150601f19603f3d011682016040523d82523d6000602084013e611a07565b606091505b5091509150611a17868383612904565b9695505050505050565b60007fffffffffffffffffffffffffffffffffffffffffffffffff000000000000000167ffffffffffffffff861601611a92576040517f1871a90c00000000000000000000000000000000000000000000000000000000815267ffffffffffffffff86166004820152602401610990565b67ffffffffffffffff8516600090815260016020908152604080832073ffffffffffffffffffffffffffffffffffffffff8816845290915281205465ffffffffffff1615908115611bc2578463ffffffff16611aec612283565b611af69190613350565b905060405180604001604052808265ffffffffffff168152602001611b248663ffffffff1663ffffffff1690565b6dffffffffffffffffffffffffffff90811690915267ffffffffffffffff8916600090815260016020908152604080832073ffffffffffffffffffffffffffffffffffffffff8c16845282529091208351815494909201519092166601000000000000027fffffffffffffffffffffffff000000000000000000000000000000000000000090931665ffffffffffff90911617919091179055611ca9565b67ffffffffffffffff8716600090815260016020908152604080832073ffffffffffffffffffffffffffffffffffffffff8a168452909152812054611c249166010000000000009091046dffffffffffffffffffffffffffff16908690612993565b67ffffffffffffffff8916600090815260016020908152604080832073ffffffffffffffffffffffffffffffffffffffff8c168452909152902080546dffffffffffffffffffffffffffff9093166601000000000000027fffffffffffffffffffffffff0000000000000000000000000000ffffffffffff9093169290921790915590505b6040805163ffffffff8616815265ffffffffffff8316602082015283151581830152905173ffffffffffffffffffffffffffffffffffffffff88169167ffffffffffffffff8a16917ff98448b987f1428e0e230e1f3c6e2ce15b5693eaf31827fbd0b1ec4b424ae7cf9181900360600190a35095945050505050565b6000806000611d3b84611d36612283565b612a44565b9250925092509193909250565b67ffffffffffffffff82161580611d68575067ffffffffffffffff828116145b15611dab576040517f1871a90c00000000000000000000000000000000000000000000000000000000815267ffffffffffffffff83166004820152602401610990565b67ffffffffffffffff828116600081815260016020819052604080832090910180547fffffffffffffffffffffffffffffffffffffffffffffffff0000000000000000169486169485179055517f1fd6dd7631312dfac2205b52913f99de03b4d7e381d5d27d3dbfe0713e6e63409190a35050565b6000611e2a612283565b65ffffffffffff16611e3f62093a8084613350565b65ffffffffffff16111592915050565b67ffffffffffffffff82161580611e6f575067ffffffffffffffff828116145b15611eb2576040517f1871a90c00000000000000000000000000000000000000000000000000000000815267ffffffffffffffff83166004820152602401610990565b67ffffffffffffffff828116600081815260016020819052604080832090910180547fffffffffffffffffffffffffffffffff0000000000000000ffffffffffffffff1668010000000000000000958716958602179055517f7a8059630b897b5de4c08ade69f8b90c3ead1f8596d62d10b6c4d14a0afb4ae29190a35050565b7fffffffffffffffffffffffffffffffffffffffffffffffff000000000000000167ffffffffffffffff831601611fa1576040517f1871a90c00000000000000000000000000000000000000000000000000000000815267ffffffffffffffff83166004820152602401610990565b67ffffffffffffffff8216600090815260016020819052604082200154611ff09070010000000000000000000000000000000090046dffffffffffffffffffffffffffff168362069780612993565b67ffffffffffffffff85166000818152600160208190526040918290200180546dffffffffffffffffffffffffffff909516700100000000000000000000000000000000027fffff0000000000000000000000000000ffffffffffffffffffffffffffffffff9095169490941790935591519092507ffeb69018ee8b8fd50ea86348f1267d07673379f72cffdeccec63853ee8ce8b4890610c90908590859063ffffffff92909216825265ffffffffffff16602082015260400190565b60606000808473ffffffffffffffffffffffffffffffffffffffff16846040516120d79190613439565b600060405180830381855af49150503d8060008114612112576040519150601f19603f3d011682016040523d82523d6000602084013e612117565b606091505b5091509150612127858383612904565b95945050505050565b60007fffffffffffffffffffffffffffffffffffffffffffffffff000000000000000167ffffffffffffffff8416016121a1576040517f1871a90c00000000000000000000000000000000000000000000000000000000815267ffffffffffffffff84166004820152602401610990565b67ffffffffffffffff8316600090815260016020908152604080832073ffffffffffffffffffffffffffffffffffffffff8616845290915281205465ffffffffffff1690036121f257506000610838565b67ffffffffffffffff8316600081815260016020908152604080832073ffffffffffffffffffffffffffffffffffffffff8716808552925280832080547fffffffffffffffffffffffff0000000000000000000000000000000000000000169055519092917ff229baa593af28c41b1d16b748cd7688f0c83aaf92d4be41c44005defe84c16691a350600192915050565b600061228e42612a9f565b905090565b73ffffffffffffffffffffffffffffffffffffffff82166000908152602081905260408120600101546122da906dffffffffffffffffffffffffffff168362069780612993565b73ffffffffffffffffffffffffffffffffffffffff85166000818152602081815260409182902060010180547fffffffffffffffffffffffffffffffffffff0000000000000000000000000000166dffffffffffffffffffffffffffff9690961695909517909455805163ffffffff8716815265ffffffffffff841694810194909452919350917fa56b76017453f399ec2327ba00375dbfb1fd070ff854341ad6191e6a2e2de19c9101610c90565b60008183116123985781610aaa565b5090919050565b60008181526002602052604090205465ffffffffffff1680158015906123cb57506123c981611e20565b155b15610850576040517f813e945900000000000000000000000000000000000000000000000000000000815260048101839052602401610990565b600080600483101561241c5750600090508061103b565b3073ffffffffffffffffffffffffffffffffffffffff8616036124b257610fa63061244786866117df565b6040805173ffffffffffffffffffffffffffffffffffffffff939093166020808501919091527fffffffff0000000000000000000000000000000000000000000000000000000092909216838201528051808403820181526060909301905281519101206003541490565b60008060006124c18787612530565b925092509250826124db576000809450945050505061103b565b6000806124e8848b61105a565b91509150816125025760008096509650505050505061103b565b6125188363ffffffff168263ffffffff16612389565b63ffffffff8116159b909a5098505050505050505050565b60008080600484101561254b575060009150819050806128fd565b600061255786866117df565b90507fffffffff0000000000000000000000000000000000000000000000000000000081167f853551b80000000000000000000000000000000000000000000000000000000014806125ea57507fffffffff0000000000000000000000000000000000000000000000000000000081167f30cae18700000000000000000000000000000000000000000000000000000000145b8061263657507fffffffff0000000000000000000000000000000000000000000000000000000081167f5296295200000000000000000000000000000000000000000000000000000000145b8061268257507fffffffff0000000000000000000000000000000000000000000000000000000081167fa64d95ce00000000000000000000000000000000000000000000000000000000145b806126ce57507fffffffff0000000000000000000000000000000000000000000000000000000081167fd22b598900000000000000000000000000000000000000000000000000000000145b156126e4576001600080935093509350506128fd565b7fffffffff0000000000000000000000000000000000000000000000000000000081167f18ff183c00000000000000000000000000000000000000000000000000000000148061277557507fffffffff0000000000000000000000000000000000000000000000000000000081167f167bd39500000000000000000000000000000000000000000000000000000000145b806127c157507fffffffff0000000000000000000000000000000000000000000000000000000081167f08d6122d00000000000000000000000000000000000000000000000000000000145b156128035760006127d660246004888a61326b565b8101906127e39190612dfe565b905060006127f082610b95565b600196506000955093506128fd92505050565b7fffffffff0000000000000000000000000000000000000000000000000000000081167f25c471a000000000000000000000000000000000000000000000000000000000148061289457507fffffffff0000000000000000000000000000000000000000000000000000000081167fb7d2b16200000000000000000000000000000000000000000000000000000000145b156128f05760006128a960246004888a61326b565b8101906128b69190612c1f565b905060016128e18267ffffffffffffffff908116600090815260016020819052604090912001541690565b600094509450945050506128fd565b6000806000935093509350505b9250925092565b6060826129195761291482612aef565b610aaa565b815115801561293d575073ffffffffffffffffffffffffffffffffffffffff84163b155b1561298c576040517f9996b31500000000000000000000000000000000000000000000000000000000815273ffffffffffffffffffffffffffffffffffffffff85166004820152602401610990565b5080610aaa565b60008060006129b1866dffffffffffffffffffffffffffff1661164d565b905060006129ee8563ffffffff168763ffffffff168463ffffffff16116129d95760006129e3565b6129e38885613455565b63ffffffff16612389565b90508063ffffffff166129ff612283565b612a099190613350565b925063ffffffff8616602083901b67ffffffff0000000016604085901b6dffffffffffff000000000000000016171793505050935093915050565b6000808069ffffffffffffffffffff602086901c166dffffffffffffffffffffffffffff861665ffffffffffff604088901c8116908716811115612a8a57828282612a8f565b816000805b9550955095505050509250925092565b600065ffffffffffff821115612aeb576040517f6dfcc6500000000000000000000000000000000000000000000000000000000081526030600482015260248101839052604401610990565b5090565b805115612aff5780518082602001fd5b6040517f1425ea4200000000000000000000000000000000000000000000000000000000815260040160405180910390fd5b50565b73ffffffffffffffffffffffffffffffffffffffff81168114612b3157600080fd5b60008083601f840112612b6857600080fd5b50813567ffffffffffffffff811115612b8057600080fd5b6020830191508360208260051b85010111156110e857600080fd5b803567ffffffffffffffff81168114612bb357600080fd5b919050565b60008060008060608587031215612bce57600080fd5b8435612bd981612b34565b9350602085013567ffffffffffffffff811115612bf557600080fd5b612c0187828801612b56565b9094509250612c14905060408601612b9b565b905092959194509250565b600060208284031215612c3157600080fd5b610aaa82612b9b565b60008060408385031215612c4d57600080fd5b8235612c5881612b34565b915060208301358015158114612c6d57600080fd5b809150509250929050565b60008060408385031215612c8b57600080fd5b8235612c9681612b34565b91506020830135612c6d81612b34565b60008083601f840112612cb857600080fd5b50813567ffffffffffffffff811115612cd057600080fd5b6020830191508360208285010111156110e857600080fd5b600080600060408486031215612cfd57600080fd5b8335612d0881612b34565b9250602084013567ffffffffffffffff811115612d2457600080fd5b612d3086828701612ca6565b9497909650939450505050565b803563ffffffff81168114612bb357600080fd5b600080600060608486031215612d6657600080fd5b612d6f84612b9b565b92506020840135612d7f81612b34565b9150612d8d60408501612d3d565b90509250925092565b60008060408385031215612da957600080fd5b612c9683612b9b565b60008060408385031215612dc557600080fd5b612dce83612b9b565b9150612ddc60208401612b9b565b90509250929050565b600060208284031215612df757600080fd5b5035919050565b600060208284031215612e1057600080fd5b8135610aaa81612b34565b7fffffffff0000000000000000000000000000000000000000000000000000000081168114612b3157600080fd5b60008060408385031215612e5c57600080fd5b8235612e6781612b34565b91506020830135612c6d81612e1b565b600080600060408486031215612e8c57600080fd5b612d0884612b9b565b60008060408385031215612ea857600080fd5b612eb183612b9b565b9150612ddc60208401612d3d565b60008060008060608587031215612ed557600080fd5b8435612ee081612b34565b93506020850135612ef081612b34565b9250604085013567ffffffffffffffff811115612f0c57600080fd5b612f1887828801612ca6565b95989497509550505050565b60008060208385031215612f3757600080fd5b823567ffffffffffffffff811115612f4e57600080fd5b612f5a85828601612b56565b90969095509350505050565b60005b83811015612f81578181015183820152602001612f69565b50506000910152565b6000602082016020835280845180835260408501915060408160051b86010192506020860160005b8281101561303a577fffffffffffffffffffffffffffffffffffffffffffffffffffffffffffffffc087860301845281518051808752612ff9816020890160208501612f66565b601f017fffffffffffffffffffffffffffffffffffffffffffffffffffffffffffffffe0169590950160209081019550938401939190910190600101612fb2565b50929695505050505050565b60008060006060848603121561305b57600080fd5b833561306681612b34565b9250602084013561307681612b34565b9150604084013561308681612e1b565b809150509250925092565b600080604083850312156130a457600080fd5b8235612eb181612b34565b600080600080606085870312156130c557600080fd5b84356130d081612b34565b9350602085013567ffffffffffffffff8111156130ec57600080fd5b6130f887828801612ca6565b909450925050604085013565ffffffffffff8116811461311757600080fd5b939692955090935050565b7f4e487b7100000000000000000000000000000000000000000000000000000000600052603260045260246000fd5b60006020828403121561316357600080fd5b8135610aaa81612e1b565b8183528181602085013750600060208284010152600060207fffffffffffffffffffffffffffffffffffffffffffffffffffffffffffffffe0601f840116840101905092915050565b6020815260006131cb60208301848661316e565b949350505050565b6000602082840312156131e557600080fd5b8151610aaa81612e1b565b73ffffffffffffffffffffffffffffffffffffffff8516815273ffffffffffffffffffffffffffffffffffffffff84166020820152606060408201526000611a1760608301848661316e565b7f4e487b7100000000000000000000000000000000000000000000000000000000600052601160045260246000fd5b6000808585111561327b57600080fd5b8386111561328857600080fd5b5050820193919092039150565b7f4e487b7100000000000000000000000000000000000000000000000000000000600052604160045260246000fd5b60008083357fffffffffffffffffffffffffffffffffffffffffffffffffffffffffffffffe18436030181126132f957600080fd5b83018035915067ffffffffffffffff82111561331457600080fd5b6020019150368190038213156110e857600080fd5b828482376000838201600081528351613346818360208801612f66565b0195945050505050565b65ffffffffffff81811683821601908111156108385761083861323c565b65ffffffffffff8616815273ffffffffffffffffffffffffffffffffffffffff8516602082015273ffffffffffffffffffffffffffffffffffffffff841660408201526080606082015260006133c860808301848661316e565b979650505050505050565b80357fffffffff000000000000000000000000000000000000000000000000000000008116906004841015613432577fffffffff00000000000000000000000000000000000000000000000000000000808560040360031b1b82161691505b5092915050565b6000825161344b818460208701612f66565b9190910192915050565b63ffffffff82811682821603908111156108385761083861323c56fea2646970667358221220c7139ba7202a63add118f92b8909e07a25614fb44880f8e1b48221d6774f3bf364736f6c634300081c0033",
  "devdoc": {
    "author": "Cooper Labs",
    "custom:contact": "security@cooperlabs.xyz",
    "errors": {
      "AddressEmptyCode(address)": [
        {
          "details": "There's no code at `target` (it is not a contract)."
        }
      ],
      "AddressInsufficientBalance(address)": [
        {
          "details": "The ETH balance of the account is not enough to perform the operation."
        }
      ],
      "FailedInnerCall()": [
        {
          "details": "A call to an address target failed. The target may have reverted."
        }
      ],
      "SafeCastOverflowedUintDowncast(uint8,uint256)": [
        {
          "details": "Value doesn't fit in an uint of `bits` size."
        }
      ]
    },
    "events": {
      "OperationCanceled(bytes32,uint32)": {
        "details": "A scheduled operation was canceled."
      },
      "OperationExecuted(bytes32,uint32)": {
        "details": "A scheduled operation was executed."
      },
      "OperationScheduled(bytes32,uint32,uint48,address,address,bytes)": {
        "details": "A delayed operation was scheduled."
      },
      "RoleAdminChanged(uint64,uint64)": {
        "details": "Role acting as admin over a given `roleId` is updated."
      },
      "RoleGrantDelayChanged(uint64,uint32,uint48)": {
        "details": "Grant delay for a given `roleId` will be updated to `delay` when `since` is reached."
      },
      "RoleGranted(uint64,address,uint32,uint48,bool)": {
        "details": "Emitted when `account` is granted `roleId`. NOTE: The meaning of the `since` argument depends on the `newMember` argument. If the role is granted to a new member, the `since` argument indicates when the account becomes a member of the role, otherwise it indicates the execution delay for this account and roleId is updated."
      },
      "RoleGuardianChanged(uint64,uint64)": {
        "details": "Role acting as guardian over a given `roleId` is updated."
      },
      "RoleLabel(uint64,string)": {
        "details": "Informational labelling for a roleId."
      },
      "RoleRevoked(uint64,address)": {
        "details": "Emitted when `account` membership or `roleId` is revoked. Unlike granting, revoking is instantaneous."
      },
      "TargetAdminDelayUpdated(address,uint32,uint48)": {
        "details": "Admin delay for a given `target` will be updated to `delay` when `since` is reached."
      },
      "TargetClosed(address,bool)": {
        "details": "Target mode is updated (true = closed, false = open)."
      },
      "TargetFunctionRoleUpdated(address,bytes4,uint64)": {
        "details": "Role required to invoke `selector` on `target` is updated to `roleId`."
      }
    },
    "kind": "dev",
    "methods": {
      "canCall(address,address,bytes4)": {
        "details": "Check if an address (`caller`) is authorised to call a given function on a given contract directly (with no restriction). Additionally, it returns the delay needed to perform the call indirectly through the {schedule} & {execute} workflow. This function is usually called by the targeted contract to control immediate execution of restricted functions. Therefore we only return true if the call can be performed without any delay. If the call is subject to a previously set delay (not zero), then the function should return false and the caller should schedule the operation for future execution. If `immediate` is true, the delay can be disregarded and the operation can be immediately executed, otherwise the operation can be executed if and only if delay is greater than 0. NOTE: The IAuthority interface does not include the `uint32` delay. This is an extension of that interface that is backward compatible. Some contracts may thus ignore the second return argument. In that case they will fail to identify the indirect workflow, and will consider calls that require a delay to be forbidden. NOTE: This function does not report the permissions of this manager itself. These are defined by the {_canCallSelf} function instead."
      },
      "cancel(address,address,bytes)": {
        "details": "Cancel a scheduled (delayed) operation. Returns the nonce that identifies the previously scheduled operation that is cancelled. Requirements: - the caller must be the proposer, a guardian of the targeted function, or a global admin Emits a {OperationCanceled} event."
      },
      "consumeScheduledOp(address,bytes)": {
        "details": "Consume a scheduled operation targeting the caller. If such an operation exists, mark it as consumed (emit an {OperationExecuted} event and clean the state). Otherwise, throw an error. This is useful for contract that want to enforce that calls targeting them were scheduled on the manager, with all the verifications that it implies. Emit a {OperationExecuted} event."
      },
      "execute(address,bytes)": {
        "details": "Execute a function that is delay restricted, provided it was properly scheduled beforehand, or the execution delay is 0. Returns the nonce that identifies the previously scheduled operation that is executed, or 0 if the operation wasn't previously scheduled (if the caller doesn't have an execution delay). Emits an {OperationExecuted} event only if the call was scheduled and delayed."
      },
      "expiration()": {
        "details": "Expiration delay for scheduled proposals. Defaults to 1 week. IMPORTANT: Avoid overriding the expiration with 0. Otherwise every contract proposal will be expired immediately, disabling any scheduling usage."
      },
      "getAccess(uint64,address)": {
        "details": "Get the access details for a given account for a given role. These details include the timepoint at which membership becomes active, and the delay applied to all operation by this user that requires this permission level. Returns: [0] Timestamp at which the account membership becomes valid. 0 means role is not granted. [1] Current execution delay for the account. [2] Pending execution delay for the account. [3] Timestamp at which the pending execution delay will become active. 0 means no delay update is scheduled."
      },
      "getNonce(bytes32)": {
        "details": "Return the nonce for the latest scheduled operation with a given id. Returns 0 if the operation has never been scheduled."
      },
      "getRoleAdmin(uint64)": {
        "details": "Get the id of the role that acts as an admin for the given role. The admin permission is required to grant the role, revoke the role and update the execution delay to execute an operation that is restricted to this role."
      },
      "getRoleGrantDelay(uint64)": {
        "details": "Get the role current grant delay. Its value may change at any point without an event emitted following a call to {setGrantDelay}. Changes to this value, including effect timepoint are notified in advance by the {RoleGrantDelayChanged} event."
      },
      "getRoleGuardian(uint64)": {
        "details": "Get the role that acts as a guardian for a given role. The guardian permission allows canceling operations that have been scheduled under the role."
      },
      "getSchedule(bytes32)": {
        "details": "Return the timepoint at which a scheduled operation will be ready for execution. This returns 0 if the operation is not yet scheduled, has expired, was executed, or was canceled."
      },
      "getTargetAdminDelay(address)": {
        "details": "Get the admin delay for a target contract. Changes to contract configuration are subject to this delay."
      },
      "getTargetFunctionRole(address,bytes4)": {
        "details": "Get the role required to call a function."
      },
      "grantRole(uint64,address,uint32)": {
        "details": "Add `account` to `roleId`, or change its execution delay. This gives the account the authorization to call any function that is restricted to this role. An optional execution delay (in seconds) can be set. If that delay is non 0, the user is required to schedule any operation that is restricted to members of this role. The user will only be able to execute the operation after the delay has passed, before it has expired. During this period, admin and guardians can cancel the operation (see {cancel}). If the account has already been granted this role, the execution delay will be updated. This update is not immediate and follows the delay rules. For example, if a user currently has a delay of 3 hours, and this is called to reduce that delay to 1 hour, the new delay will take some time to take effect, enforcing that any operation executed in the 3 hours that follows this update was indeed scheduled before this update. Requirements: - the caller must be an admin for the role (see {getRoleAdmin}) - granted role must not be the `PUBLIC_ROLE` Emits a {RoleGranted} event."
      },
      "hasRole(uint64,address)": {
        "details": "Check if a given account currently has the permission level corresponding to a given role. Note that this permission might be associated with an execution delay. {getAccess} can provide more details."
      },
      "hashOperation(address,address,bytes)": {
        "details": "Hashing function for delayed operations."
      },
      "isTargetClosed(address)": {
        "details": "Get whether the contract is closed disabling any access. Otherwise role permissions are applied."
      },
      "labelRole(uint64,string)": {
        "details": "Give a label to a role, for improved role discoverability by UIs. Requirements: - the caller must be a global admin Emits a {RoleLabel} event."
      },
      "minSetback()": {
        "details": "Minimum setback for all delay updates, with the exception of execution delays. It can be increased without setback (and reset via {revokeRole} in the case event of an accidental increase). Defaults to 5 days."
      },
      "multicall(bytes[])": {
        "custom:oz-upgrades-unsafe-allow-reachable": "delegatecall",
        "details": "Receives and executes a batch of function calls on this contract."
      },
      "renounceRole(uint64,address)": {
        "details": "Renounce role permissions for the calling account with immediate effect. If the sender is not in the role this call has no effect. Requirements: - the caller must be `callerConfirmation`. Emits a {RoleRevoked} event if the account had the role."
      },
      "revokeRole(uint64,address)": {
        "details": "Remove an account from a role, with immediate effect. If the account does not have the role, this call has no effect. Requirements: - the caller must be an admin for the role (see {getRoleAdmin}) - revoked role must not be the `PUBLIC_ROLE` Emits a {RoleRevoked} event if the account had the role."
      },
      "schedule(address,bytes,uint48)": {
        "details": "Schedule a delayed operation for future execution, and return the operation identifier. It is possible to choose the timestamp at which the operation becomes executable as long as it satisfies the execution delays required for the caller. The special value zero will automatically set the earliest possible time. Returns the `operationId` that was scheduled. Since this value is a hash of the parameters, it can reoccur when the same parameters are used; if this is relevant, the returned `nonce` can be used to uniquely identify this scheduled operation from other occurrences of the same `operationId` in invocations of {execute} and {cancel}. Emits a {OperationScheduled} event. NOTE: It is not possible to concurrently schedule more than one operation with the same `target` and `data`. If this is necessary, a random byte can be appended to `data` to act as a salt that will be ignored by the target contract if it is using standard Solidity ABI encoding."
      },
      "setGrantDelay(uint64,uint32)": {
        "details": "Update the delay for granting a `roleId`. Requirements: - the caller must be a global admin Emits a {RoleGrantDelayChanged} event."
      },
      "setRoleAdmin(uint64,uint64)": {
        "details": "Change admin role for a given role. Requirements: - the caller must be a global admin Emits a {RoleAdminChanged} event"
      },
      "setRoleGuardian(uint64,uint64)": {
        "details": "Change guardian role for a given role. Requirements: - the caller must be a global admin Emits a {RoleGuardianChanged} event"
      },
      "setTargetAdminDelay(address,uint32)": {
        "details": "Set the delay for changing the configuration of a given target contract. Requirements: - the caller must be a global admin Emits a {TargetAdminDelayUpdated} event."
      },
      "setTargetClosed(address,bool)": {
        "details": "Set the closed flag for a contract. Requirements: - the caller must be a global admin Emits a {TargetClosed} event."
      },
      "setTargetFunctionRole(address,bytes4[],uint64)": {
        "details": "Set the role required to call functions identified by the `selectors` in the `target` contract. Requirements: - the caller must be a global admin Emits a {TargetFunctionRoleUpdated} event per selector."
      },
      "updateAuthority(address,address)": {
        "details": "Changes the authority of a target managed by this manager instance. Requirements: - the caller must be a global admin"
      }
    },
    "title": "ParallelAccessManager",
    "version": 1
  },
  "userdoc": {
    "kind": "user",
    "methods": {},
    "notice": "Contract inheriting from OpenZeppelin's AccessManager contract.",
    "version": 1
  },
  "storageLayout": {
    "storage": [
      {
        "astId": 77,
        "contract": "contracts/access/ParallelAccessManager.sol:ParallelAccessManager",
        "label": "_targets",
        "offset": 0,
        "slot": "0",
        "type": "t_mapping(t_address,t_struct(TargetConfig)34_storage)"
      },
      {
        "astId": 82,
        "contract": "contracts/access/ParallelAccessManager.sol:ParallelAccessManager",
        "label": "_roles",
        "offset": 0,
        "slot": "1",
        "type": "t_mapping(t_uint64,t_struct(Role)53_storage)"
      },
      {
        "astId": 87,
        "contract": "contracts/access/ParallelAccessManager.sol:ParallelAccessManager",
        "label": "_schedules",
        "offset": 0,
        "slot": "2",
        "type": "t_mapping(t_bytes32,t_struct(Schedule)58_storage)"
      },
      {
        "astId": 89,
        "contract": "contracts/access/ParallelAccessManager.sol:ParallelAccessManager",
        "label": "_executionId",
        "offset": 0,
        "slot": "3",
        "type": "t_bytes32"
      }
    ],
    "types": {
      "t_address": {
        "encoding": "inplace",
        "label": "address",
        "numberOfBytes": "20"
      },
      "t_bool": {
        "encoding": "inplace",
        "label": "bool",
        "numberOfBytes": "1"
      },
      "t_bytes32": {
        "encoding": "inplace",
        "label": "bytes32",
        "numberOfBytes": "32"
      },
      "t_bytes4": {
        "encoding": "inplace",
        "label": "bytes4",
        "numberOfBytes": "4"
      },
      "t_mapping(t_address,t_struct(Access)40_storage)": {
        "encoding": "mapping",
        "key": "t_address",
        "label": "mapping(address => struct AccessManager.Access)",
        "numberOfBytes": "32",
        "value": "t_struct(Access)40_storage"
      },
      "t_mapping(t_address,t_struct(TargetConfig)34_storage)": {
        "encoding": "mapping",
        "key": "t_address",
        "label": "mapping(address => struct AccessManager.TargetConfig)",
        "numberOfBytes": "32",
        "value": "t_struct(TargetConfig)34_storage"
      },
      "t_mapping(t_bytes32,t_struct(Schedule)58_storage)": {
        "encoding": "mapping",
        "key": "t_bytes32",
        "label": "mapping(bytes32 => struct AccessManager.Schedule)",
        "numberOfBytes": "32",
        "value": "t_struct(Schedule)58_storage"
      },
      "t_mapping(t_bytes4,t_uint64)": {
        "encoding": "mapping",
        "key": "t_bytes4",
        "label": "mapping(bytes4 => uint64)",
        "numberOfBytes": "32",
        "value": "t_uint64"
      },
      "t_mapping(t_uint64,t_struct(Role)53_storage)": {
        "encoding": "mapping",
        "key": "t_uint64",
        "label": "mapping(uint64 => struct AccessManager.Role)",
        "numberOfBytes": "32",
        "value": "t_struct(Role)53_storage"
      },
      "t_struct(Access)40_storage": {
        "encoding": "inplace",
        "label": "struct AccessManager.Access",
        "members": [
          {
            "astId": 36,
            "contract": "contracts/access/ParallelAccessManager.sol:ParallelAccessManager",
            "label": "since",
            "offset": 0,
            "slot": "0",
            "type": "t_uint48"
          },
          {
            "astId": 39,
            "contract": "contracts/access/ParallelAccessManager.sol:ParallelAccessManager",
            "label": "delay",
            "offset": 6,
            "slot": "0",
            "type": "t_userDefinedValueType(Delay)5579"
          }
        ],
        "numberOfBytes": "32"
      },
      "t_struct(Role)53_storage": {
        "encoding": "inplace",
        "label": "struct AccessManager.Role",
        "members": [
          {
            "astId": 45,
            "contract": "contracts/access/ParallelAccessManager.sol:ParallelAccessManager",
            "label": "members",
            "offset": 0,
            "slot": "0",
            "type": "t_mapping(t_address,t_struct(Access)40_storage)"
          },
          {
            "astId": 47,
            "contract": "contracts/access/ParallelAccessManager.sol:ParallelAccessManager",
            "label": "admin",
            "offset": 0,
            "slot": "1",
            "type": "t_uint64"
          },
          {
            "astId": 49,
            "contract": "contracts/access/ParallelAccessManager.sol:ParallelAccessManager",
            "label": "guardian",
            "offset": 8,
            "slot": "1",
            "type": "t_uint64"
          },
          {
            "astId": 52,
            "contract": "contracts/access/ParallelAccessManager.sol:ParallelAccessManager",
            "label": "grantDelay",
            "offset": 16,
            "slot": "1",
            "type": "t_userDefinedValueType(Delay)5579"
          }
        ],
        "numberOfBytes": "64"
      },
      "t_struct(Schedule)58_storage": {
        "encoding": "inplace",
        "label": "struct AccessManager.Schedule",
        "members": [
          {
            "astId": 55,
            "contract": "contracts/access/ParallelAccessManager.sol:ParallelAccessManager",
            "label": "timepoint",
            "offset": 0,
            "slot": "0",
            "type": "t_uint48"
          },
          {
            "astId": 57,
            "contract": "contracts/access/ParallelAccessManager.sol:ParallelAccessManager",
            "label": "nonce",
            "offset": 6,
            "slot": "0",
            "type": "t_uint32"
          }
        ],
        "numberOfBytes": "32"
      },
      "t_struct(TargetConfig)34_storage": {
        "encoding": "inplace",
        "label": "struct AccessManager.TargetConfig",
        "members": [
          {
            "astId": 28,
            "contract": "contracts/access/ParallelAccessManager.sol:ParallelAccessManager",
            "label": "allowedRoles",
            "offset": 0,
            "slot": "0",
            "type": "t_mapping(t_bytes4,t_uint64)"
          },
          {
            "astId": 31,
            "contract": "contracts/access/ParallelAccessManager.sol:ParallelAccessManager",
            "label": "adminDelay",
            "offset": 0,
            "slot": "1",
            "type": "t_userDefinedValueType(Delay)5579"
          },
          {
            "astId": 33,
            "contract": "contracts/access/ParallelAccessManager.sol:ParallelAccessManager",
            "label": "closed",
            "offset": 14,
            "slot": "1",
            "type": "t_bool"
          }
        ],
        "numberOfBytes": "64"
      },
      "t_uint32": {
        "encoding": "inplace",
        "label": "uint32",
        "numberOfBytes": "4"
      },
      "t_uint48": {
        "encoding": "inplace",
        "label": "uint48",
        "numberOfBytes": "6"
      },
      "t_uint64": {
        "encoding": "inplace",
        "label": "uint64",
        "numberOfBytes": "8"
      },
      "t_userDefinedValueType(Delay)5579": {
        "encoding": "inplace",
        "label": "Time.Delay",
        "numberOfBytes": "14"
      }
    }
  }
}