{
  "address": "0x15452454A9735D68df430879B2941316a09295B1",
  "abi": [
    {
      "inputs": [
        {
          "internalType": "contract IERC4626",
          "name": "_vault",
          "type": "address"
        },
        {
          "internalType": "uint256",
          "name": "_siloDecimalsOffset",
          "type": "uint256"
        }
      ],
      "stateMutability": "nonpayable",
      "type": "constructor"
    },
    {
      "inputs": [],
      "name": "SILO_DECIMALS_OFFSET",
      "outputs": [
        {
          "internalType": "uint256",
          "name": "",
          "type": "uint256"
        }
      ],
      "stateMutability": "view",
      "type": "function"
    },
    {
      "inputs": [
        {
          "internalType": "uint256",
          "name": "shares",
          "type": "uint256"
        }
      ],
      "name": "convertToAssets",
      "outputs": [
        {
          "internalType": "uint256",
          "name": "",
          "type": "uint256"
        }
      ],
      "stateMutability": "view",
      "type": "function"
    },
    {
      "inputs": [],
      "name": "siloVault",
      "outputs": [
        {
          "internalType": "contract IERC4626",
          "name": "",
          "type": "address"
        }
      ],
      "stateMutability": "view",
      "type": "function"
    }
  ],
  "transactionHash": "0x04c2b1578522b9c63cdff61438f0749490ea46ee28d34b1b0424b731bf3be443",
  "args": [
    "0x92ebF5A1fB4061B45222a6d76ACCF4698bdE4b95",
    18
  ],
  "numDeployments": 1,
  "solcInputHash": "654ac72a7dcf325b5428ab93211e9217",
  "bytecode": "0x60c060405234801561001057600080fd5b506040516104f53803806104f583398101604081905261002f916100f0565b6001600160a01b03821661008a5760405162461bcd60e51b815260206004820152601560248201527f496e76616c6964207661756c742061646472657373000000000000000000000060448201526064015b60405180910390fd5b600081116100da5760405162461bcd60e51b815260206004820152601c60248201527f496e76616c69642073696c6f20646563696d616c73206f6666736574000000006044820152606401610081565b6001600160a01b0390911660a05260805261012a565b6000806040838503121561010357600080fd5b82516001600160a01b038116811461011a57600080fd5b6020939093015192949293505050565b60805160a05161039b61015a600039600081816098015260f801526000818160710152610122015261039b6000f3fe608060405234801561001057600080fd5b50600436106100415760003560e01c806307a2d13a14610046578063e6bad7031461006c578063fa370c6d14610093575b600080fd5b6100596100543660046101b7565b6100df565b6040519081526020015b60405180910390f35b6100597f000000000000000000000000000000000000000000000000000000000000000081565b6100ba7f000000000000000000000000000000000000000000000000000000000000000081565b60405173ffffffffffffffffffffffffffffffffffffffff9091168152602001610063565b600073ffffffffffffffffffffffffffffffffffffffff7f0000000000000000000000000000000000000000000000000000000000000000166307a2d13a6101487f0000000000000000000000000000000000000000000000000000000000000000600a610322565b6101529085610335565b6040518263ffffffff1660e01b815260040161017091815260200190565b602060405180830381865afa15801561018d573d6000803e3d6000fd5b505050506040513d601f19601f820116820180604052508101906101b1919061034c565b92915050565b6000602082840312156101c957600080fd5b5035919050565b7f4e487b7100000000000000000000000000000000000000000000000000000000600052601160045260246000fd5b6001815b600184111561023a5780850481111561021e5761021e6101d0565b600184161561022c57908102905b60019390931c928002610203565b935093915050565b600082610251575060016101b1565b8161025e575060006101b1565b8160018114610274576002811461027e5761029a565b60019150506101b1565b60ff84111561028f5761028f6101d0565b50506001821b6101b1565b5060208310610133831016604e8410600b84101617156102bd575081810a6101b1565b6102e87fffffffffffffffffffffffffffffffffffffffffffffffffffffffffffffffff84846101ff565b807fffffffffffffffffffffffffffffffffffffffffffffffffffffffffffffffff0482111561031a5761031a6101d0565b029392505050565b600061032e8383610242565b9392505050565b80820281158282048414176101b1576101b16101d0565b60006020828403121561035e57600080fd5b505191905056fea26469706673582212208132b75c21e343d866685b48f46451aca65b93b7b775dc91cfd268d1c8bc548064736f6c634300081c0033",
  "devdoc": {
    "author": "Cooper Labs",
    "custom:contact": "security@cooperlabs.xyz",
    "details": "Silo Vaults v2 is a ERC4626 that do not have an initial 1:1 shares-to-assets rate with underlying markets but 1e18 shares = 1 underlying asset.This adapter is used to allow MorphoChainlinkOracleV2 to get the assets value of Silo Vaults v2 rounded down.",
    "kind": "dev",
    "methods": {
      "convertToAssets(uint256)": {
        "params": {
          "shares": "The number of shares to convert in 1e18."
        },
        "returns": {
          "_0": "The number of assets in 1e18 from silo vault."
        }
      }
    },
    "title": "SiloVaultsMorphoAdapter",
    "version": 1
  },
  "userdoc": {
    "kind": "user",
    "methods": {
      "convertToAssets(uint256)": {
        "notice": "Convert shares to assets and apply the silo decimals offset."
      }
    },
    "notice": "Adapter of Silo Vaults for MorphoChainlinkOracleV2.",
    "version": 1
  },
  "storageLayout": {
    "storage": [],
    "types": null
  }
}